{
  "contractName": "Dairy",
  "abi": [
    {
      "inputs": [],
      "stateMutability": "nonpayable",
      "type": "constructor"
    },
    {
      "inputs": [
        {
          "internalType": "address",
          "name": "",
          "type": "address"
        },
        {
          "internalType": "string",
          "name": "",
          "type": "string"
        }
      ],
      "name": "myDairy",
      "outputs": [
        {
          "internalType": "string",
          "name": "",
          "type": "string"
        }
      ],
      "stateMutability": "view",
      "type": "function",
      "constant": true
    },
    {
      "inputs": [
        {
          "internalType": "string",
          "name": "_date",
          "type": "string"
        },
        {
          "internalType": "string",
          "name": "_content",
          "type": "string"
        }
      ],
      "name": "addDairy",
      "outputs": [],
      "stateMutability": "payable",
      "type": "function",
      "payable": true
    },
    {
      "inputs": [
        {
          "internalType": "string",
          "name": "_date",
          "type": "string"
        }
      ],
      "name": "getDairy",
      "outputs": [
        {
          "internalType": "string",
          "name": "",
          "type": "string"
        }
      ],
      "stateMutability": "view",
      "type": "function",
      "constant": true
    }
  ],
  "bytecode": "0x608060405234801561001057600080fd5b5033600260006101000a81548173ffffffffffffffffffffffffffffffffffffffff021916908373ffffffffffffffffffffffffffffffffffffffff160217905550610868806100616000396000f3fe6080604052600436106100345760003560e01c806325a966e614610039578063728b0303146100765780639e0289d2146100b3575b600080fd5b34801561004557600080fd5b50610060600480360381019061005b91906105b7565b6100cf565b60405161006d919061069b565b60405180910390f35b34801561008257600080fd5b5061009d600480360381019061009891906106bd565b610192565b6040516100aa919061069b565b60405180910390f35b6100cd60048036038101906100c89190610706565b61027f565b005b600160205281600052604060002081805160208101820180518482526020830160208501208183528095505050505050600091509150508054610111906107ad565b80601f016020809104026020016040519081016040528092919081815260200182805461013d906107ad565b801561018a5780601f1061015f5761010080835404028352916020019161018a565b820191906000526020600020905b81548152906001019060200180831161016d57829003601f168201915b505050505081565b6060600160003373ffffffffffffffffffffffffffffffffffffffff1673ffffffffffffffffffffffffffffffffffffffff168152602001908152602001600020826040516101e1919061081b565b908152602001604051809103902080546101fa906107ad565b80601f0160208091040260200160405190810160405280929190818152602001828054610226906107ad565b80156102735780601f1061024857610100808354040283529160200191610273565b820191906000526020600020905b81548152906001019060200180831161025657829003601f168201915b50505050509050919050565b600260009054906101000a900473ffffffffffffffffffffffffffffffffffffffff1673ffffffffffffffffffffffffffffffffffffffff166108fc349081150290604051600060405180830381858888f193505050501580156102e7573d6000803e3d6000fd5b5080600160003373ffffffffffffffffffffffffffffffffffffffff1673ffffffffffffffffffffffffffffffffffffffff16815260200190815260200160002083604051610336919061081b565b9081526020016040518091039020908051906020019061035792919061035c565b505050565b828054610368906107ad565b90600052602060002090601f01602090048101928261038a57600085556103d1565b82601f106103a357805160ff19168380011785556103d1565b828001600101855582156103d1579182015b828111156103d05782518255916020019190600101906103b5565b5b5090506103de91906103e2565b5090565b5b808211156103fb5760008160009055506001016103e3565b5090565b6000604051905090565b600080fd5b600080fd5b600073ffffffffffffffffffffffffffffffffffffffff82169050919050565b600061043e82610413565b9050919050565b61044e81610433565b811461045957600080fd5b50565b60008135905061046b81610445565b92915050565b600080fd5b600080fd5b6000601f19601f8301169050919050565b7f4e487b7100000000000000000000000000000000000000000000000000000000600052604160045260246000fd5b6104c48261047b565b810181811067ffffffffffffffff821117156104e3576104e261048c565b5b80604052505050565b60006104f66103ff565b905061050282826104bb565b919050565b600067ffffffffffffffff8211156105225761052161048c565b5b61052b8261047b565b9050602081019050919050565b82818337600083830152505050565b600061055a61055584610507565b6104ec565b90508281526020810184848401111561057657610575610476565b5b610581848285610538565b509392505050565b600082601f83011261059e5761059d610471565b5b81356105ae848260208601610547565b91505092915050565b600080604083850312156105ce576105cd610409565b5b60006105dc8582860161045c565b925050602083013567ffffffffffffffff8111156105fd576105fc61040e565b5b61060985828601610589565b9150509250929050565b600081519050919050565b600082825260208201905092915050565b60005b8381101561064d578082015181840152602081019050610632565b8381111561065c576000848401525b50505050565b600061066d82610613565b610677818561061e565b935061068781856020860161062f565b6106908161047b565b840191505092915050565b600060208201905081810360008301526106b58184610662565b905092915050565b6000602082840312156106d3576106d2610409565b5b600082013567ffffffffffffffff8111156106f1576106f061040e565b5b6106fd84828501610589565b91505092915050565b6000806040838503121561071d5761071c610409565b5b600083013567ffffffffffffffff81111561073b5761073a61040e565b5b61074785828601610589565b925050602083013567ffffffffffffffff8111156107685761076761040e565b5b61077485828601610589565b9150509250929050565b7f4e487b7100000000000000000000000000000000000000000000000000000000600052602260045260246000fd5b600060028204905060018216806107c557607f821691505b602082108114156107d9576107d861077e565b5b50919050565b600081905092915050565b60006107f582610613565b6107ff81856107df565b935061080f81856020860161062f565b80840191505092915050565b600061082782846107ea565b91508190509291505056fea26469706673582212203e2dea0f137f37297063fa31c986440eae11ec175fe50ac5e78ef8866f51355a64736f6c634300080b0033",
  "immutableReferences": {},
  "source": "// SPDX-License-Identifier: UNLICENSED\r\npragma solidity ^0.8.7;\r\n\r\ncontract Dairy {\r\n\r\n    mapping(string => string) dailyDairy;\r\n    mapping(address => mapping(string => string)) public myDairy;\r\n    address payable owner;\r\n\r\n    constructor() {\r\n        owner = payable(msg.sender);\r\n    }\r\n\r\n    function addDairy (string memory _date, string memory _content) public payable{\r\n        \r\n        owner.transfer(msg.value);\r\n        myDairy[msg.sender][_date]=_content;\r\n    }\r\n\r\n    function getDairy(string memory _date) public view returns(string memory) {\r\n        return myDairy[msg.sender][_date];\r\n    }\r\n}",
  "sourcePath": "C:\\Users\\ashik\\OneDrive\\Desktop\\Smart_Dairy\\smart_dairy\\contracts\\Dairy.sol",
  "compiler": {
    "name": "solc",
    "version": "0.8.11+commit.d7f03943.Emscripten.clang"
  },
  "schemaVersion": "3.4.4",
  "updatedAt": "2022-04-21T14:46:26.940Z",
  "networkType": "ethereum",
  "devdoc": {
    "kind": "dev",
    "methods": {},
    "version": 1
  },
  "userdoc": {
    "kind": "user",
    "methods": {},
    "version": 1
  }
}