{
  "contractName": "Dairy",
  "abi": [
    {
      "inputs": [],
      "stateMutability": "nonpayable",
      "type": "constructor"
    },
    {
      "inputs": [
        {
          "internalType": "address",
          "name": "",
          "type": "address"
        },
        {
          "internalType": "string",
          "name": "",
          "type": "string"
        }
      ],
      "name": "myDairy",
      "outputs": [
        {
          "internalType": "string",
          "name": "",
          "type": "string"
        }
      ],
      "stateMutability": "view",
      "type": "function",
      "constant": true
    },
    {
      "inputs": [
        {
          "internalType": "string",
          "name": "_date",
          "type": "string"
        },
        {
          "internalType": "string",
          "name": "_content",
          "type": "string"
        }
      ],
      "name": "addDairy",
      "outputs": [],
      "stateMutability": "payable",
      "type": "function",
      "payable": true
    },
    {
      "inputs": [
        {
          "internalType": "string",
          "name": "_date",
          "type": "string"
        }
      ],
      "name": "getDairy",
      "outputs": [
        {
          "internalType": "string",
          "name": "",
          "type": "string"
        }
      ],
      "stateMutability": "view",
      "type": "function",
      "constant": true
    }
  ],
  "bytecode": "0x608060405234801561001057600080fd5b5033600260006101000a81548173ffffffffffffffffffffffffffffffffffffffff021916908373ffffffffffffffffffffffffffffffffffffffff16021790555061091c806100616000396000f3fe6080604052600436106100345760003560e01c806325a966e614610039578063728b0303146100765780639e0289d2146100b3575b600080fd5b34801561004557600080fd5b50610060600480360381019061005b91906105ff565b6100cf565b60405161006d91906106e3565b60405180910390f35b34801561008257600080fd5b5061009d60048036038101906100989190610705565b610192565b6040516100aa91906106e3565b60405180910390f35b6100cd60048036038101906100c8919061074e565b61027f565b005b600160205281600052604060002081805160208101820180518482526020830160208501208183528095505050505050600091509150508054610111906107f5565b80601f016020809104026020016040519081016040528092919081815260200182805461013d906107f5565b801561018a5780601f1061015f5761010080835404028352916020019161018a565b820191906000526020600020905b81548152906001019060200180831161016d57829003601f168201915b505050505081565b6060600160003373ffffffffffffffffffffffffffffffffffffffff1673ffffffffffffffffffffffffffffffffffffffff168152602001908152602001600020826040516101e19190610863565b908152602001604051809103902080546101fa906107f5565b80601f0160208091040260200160405190810160405280929190818152602001828054610226906107f5565b80156102735780601f1061024857610100808354040283529160200191610273565b820191906000526020600020905b81548152906001019060200180831161025657829003601f168201915b50505050509050919050565b64746a5288003410156102c7576040517f08c379a00000000000000000000000000000000000000000000000000000000081526004016102be906108c6565b60405180910390fd5b80600160003373ffffffffffffffffffffffffffffffffffffffff1673ffffffffffffffffffffffffffffffffffffffff168152602001908152602001600020836040516103159190610863565b908152602001604051809103902090805190602001906103369291906103a4565b50600260009054906101000a900473ffffffffffffffffffffffffffffffffffffffff1673ffffffffffffffffffffffffffffffffffffffff166108fc349081150290604051600060405180830381858888f1935050505015801561039f573d6000803e3d6000fd5b505050565b8280546103b0906107f5565b90600052602060002090601f0160209004810192826103d25760008555610419565b82601f106103eb57805160ff1916838001178555610419565b82800160010185558215610419579182015b828111156104185782518255916020019190600101906103fd565b5b509050610426919061042a565b5090565b5b8082111561044357600081600090555060010161042b565b5090565b6000604051905090565b600080fd5b600080fd5b600073ffffffffffffffffffffffffffffffffffffffff82169050919050565b60006104868261045b565b9050919050565b6104968161047b565b81146104a157600080fd5b50565b6000813590506104b38161048d565b92915050565b600080fd5b600080fd5b6000601f19601f8301169050919050565b7f4e487b7100000000000000000000000000000000000000000000000000000000600052604160045260246000fd5b61050c826104c3565b810181811067ffffffffffffffff8211171561052b5761052a6104d4565b5b80604052505050565b600061053e610447565b905061054a8282610503565b919050565b600067ffffffffffffffff82111561056a576105696104d4565b5b610573826104c3565b9050602081019050919050565b82818337600083830152505050565b60006105a261059d8461054f565b610534565b9050828152602081018484840111156105be576105bd6104be565b5b6105c9848285610580565b509392505050565b600082601f8301126105e6576105e56104b9565b5b81356105f684826020860161058f565b91505092915050565b6000806040838503121561061657610615610451565b5b6000610624858286016104a4565b925050602083013567ffffffffffffffff81111561064557610644610456565b5b610651858286016105d1565b9150509250929050565b600081519050919050565b600082825260208201905092915050565b60005b8381101561069557808201518184015260208101905061067a565b838111156106a4576000848401525b50505050565b60006106b58261065b565b6106bf8185610666565b93506106cf818560208601610677565b6106d8816104c3565b840191505092915050565b600060208201905081810360008301526106fd81846106aa565b905092915050565b60006020828403121561071b5761071a610451565b5b600082013567ffffffffffffffff81111561073957610738610456565b5b610745848285016105d1565b91505092915050565b6000806040838503121561076557610764610451565b5b600083013567ffffffffffffffff81111561078357610782610456565b5b61078f858286016105d1565b925050602083013567ffffffffffffffff8111156107b0576107af610456565b5b6107bc858286016105d1565b9150509250929050565b7f4e487b7100000000000000000000000000000000000000000000000000000000600052602260045260246000fd5b6000600282049050600182168061080d57607f821691505b60208210811415610821576108206107c6565b5b50919050565b600081905092915050565b600061083d8261065b565b6108478185610827565b9350610857818560208601610677565b80840191505092915050565b600061086f8284610832565b915081905092915050565b7f4e6f7420656e6f7567682066756e642073656e74000000000000000000000000600082015250565b60006108b0601483610666565b91506108bb8261087a565b602082019050919050565b600060208201905081810360008301526108df816108a3565b905091905056fea264697066735822122091520a22d14f3029ad437cdb87c58c205acf645e9dd91ae56fe04c9a9814fdd564736f6c634300080b0033",
  "immutableReferences": {},
  "source": "// SPDX-License-Identifier: UNLICENSED\r\npragma solidity ^0.8.7;\r\n\r\ncontract Dairy {\r\n\r\n    mapping(string => string) dailyDairy;\r\n    mapping(address => mapping(string => string)) public myDairy;\r\n    address payable owner;\r\n\r\n    constructor() {\r\n        owner = payable(msg.sender);\r\n    }\r\n\r\n    function addDairy (string memory _date, string memory _content) payable public {\r\n        require(msg.value >=0.0000005 ether , \"Not enough fund sent\");\r\n        myDairy[msg.sender][_date]=_content;\r\n        owner.transfer(msg.value);\r\n    }\r\n\r\n    function getDairy(string memory _date) public view returns(string memory) {\r\n        return myDairy[msg.sender][_date];\r\n    }\r\n}",
  "sourcePath": "C:\\Users\\ashik\\OneDrive\\Desktop\\Smart_Dairy\\smart_dairy\\contracts\\Dairy.sol",
  "compiler": {
    "name": "solc",
    "version": "0.8.11+commit.d7f03943.Emscripten.clang"
  },
  "schemaVersion": "3.4.4",
  "updatedAt": "2022-04-17T10:41:50.631Z",
  "networkType": "ethereum",
  "devdoc": {
    "kind": "dev",
    "methods": {},
    "version": 1
  },
  "userdoc": {
    "kind": "user",
    "methods": {},
    "version": 1
  }
}